{
  "contractName": "Voting",
  "abi": [
    {
      "inputs": [],
      "stateMutability": "nonpayable",
      "type": "constructor"
    },
    {
      "anonymous": false,
      "inputs": [
        {
          "indexed": true,
          "internalType": "address",
          "name": "previousOwner",
          "type": "address"
        },
        {
          "indexed": true,
          "internalType": "address",
          "name": "newOwner",
          "type": "address"
        }
      ],
      "name": "OwnershipTransferred",
      "type": "event"
    },
    {
      "anonymous": false,
      "inputs": [
        {
          "indexed": false,
          "internalType": "uint256",
          "name": "proposalId",
          "type": "uint256"
        }
      ],
      "name": "ProposalRegistered",
      "type": "event"
    },
    {
      "anonymous": false,
      "inputs": [
        {
          "indexed": false,
          "internalType": "address",
          "name": "voter",
          "type": "address"
        },
        {
          "indexed": false,
          "internalType": "uint256",
          "name": "proposalId",
          "type": "uint256"
        }
      ],
      "name": "Voted",
      "type": "event"
    },
    {
      "anonymous": false,
      "inputs": [
        {
          "indexed": false,
          "internalType": "address",
          "name": "voterAddress",
          "type": "address"
        }
      ],
      "name": "VoterRegistered",
      "type": "event"
    },
    {
      "anonymous": false,
      "inputs": [
        {
          "indexed": false,
          "internalType": "enum Voting.WorkflowStatus",
          "name": "previousStatus",
          "type": "uint8"
        },
        {
          "indexed": false,
          "internalType": "enum Voting.WorkflowStatus",
          "name": "newStatus",
          "type": "uint8"
        }
      ],
      "name": "WorkflowStatusChange",
      "type": "event"
    },
    {
      "inputs": [],
      "name": "owner",
      "outputs": [
        {
          "internalType": "address",
          "name": "",
          "type": "address"
        }
      ],
      "stateMutability": "view",
      "type": "function",
      "constant": true
    },
    {
      "inputs": [],
      "name": "renounceOwnership",
      "outputs": [],
      "stateMutability": "nonpayable",
      "type": "function"
    },
    {
      "inputs": [
        {
          "internalType": "address",
          "name": "newOwner",
          "type": "address"
        }
      ],
      "name": "transferOwnership",
      "outputs": [],
      "stateMutability": "nonpayable",
      "type": "function"
    },
    {
      "inputs": [],
      "name": "winningProposalID",
      "outputs": [
        {
          "internalType": "uint256",
          "name": "",
          "type": "uint256"
        }
      ],
      "stateMutability": "view",
      "type": "function",
      "constant": true
    },
    {
      "inputs": [],
      "name": "workflowStatus",
      "outputs": [
        {
          "internalType": "enum Voting.WorkflowStatus",
          "name": "",
          "type": "uint8"
        }
      ],
      "stateMutability": "view",
      "type": "function",
      "constant": true
    },
    {
      "inputs": [
        {
          "internalType": "address",
          "name": "_addr",
          "type": "address"
        }
      ],
      "name": "getVoter",
      "outputs": [
        {
          "components": [
            {
              "internalType": "bool",
              "name": "isRegistered",
              "type": "bool"
            },
            {
              "internalType": "bool",
              "name": "hasVoted",
              "type": "bool"
            },
            {
              "internalType": "uint128",
              "name": "votedProposalId",
              "type": "uint128"
            }
          ],
          "internalType": "struct Voting.Voter",
          "name": "",
          "type": "tuple"
        }
      ],
      "stateMutability": "view",
      "type": "function",
      "constant": true
    },
    {
      "inputs": [
        {
          "internalType": "uint128",
          "name": "_id",
          "type": "uint128"
        }
      ],
      "name": "getOneProposal",
      "outputs": [
        {
          "components": [
            {
              "internalType": "string",
              "name": "description",
              "type": "string"
            },
            {
              "internalType": "uint256",
              "name": "voteCount",
              "type": "uint256"
            }
          ],
          "internalType": "struct Voting.Proposal",
          "name": "",
          "type": "tuple"
        }
      ],
      "stateMutability": "view",
      "type": "function",
      "constant": true
    },
    {
      "inputs": [
        {
          "internalType": "address",
          "name": "_addr",
          "type": "address"
        }
      ],
      "name": "addVoter",
      "outputs": [],
      "stateMutability": "nonpayable",
      "type": "function"
    },
    {
      "inputs": [
        {
          "internalType": "string",
          "name": "_desc",
          "type": "string"
        }
      ],
      "name": "addProposal",
      "outputs": [],
      "stateMutability": "nonpayable",
      "type": "function"
    },
    {
      "inputs": [
        {
          "internalType": "uint128",
          "name": "_id",
          "type": "uint128"
        }
      ],
      "name": "setVote",
      "outputs": [],
      "stateMutability": "nonpayable",
      "type": "function"
    },
    {
      "inputs": [],
      "name": "startProposalsRegistering",
      "outputs": [],
      "stateMutability": "nonpayable",
      "type": "function"
    },
    {
      "inputs": [],
      "name": "endProposalsRegistering",
      "outputs": [],
      "stateMutability": "nonpayable",
      "type": "function"
    },
    {
      "inputs": [],
      "name": "startVotingSession",
      "outputs": [],
      "stateMutability": "nonpayable",
      "type": "function"
    },
    {
      "inputs": [],
      "name": "endVotingSession",
      "outputs": [],
      "stateMutability": "nonpayable",
      "type": "function"
    },
    {
      "inputs": [],
      "name": "tallyVotes",
      "outputs": [],
      "stateMutability": "nonpayable",
      "type": "function"
    }
  ],
  "bytecode": "0x60806040523480156200001157600080fd5b506200003262000026620000a260201b60201c565b620000aa60201b60201c565b600160046000620000486200016e60201b60201c565b73ffffffffffffffffffffffffffffffffffffffff1673ffffffffffffffffffffffffffffffffffffffff16815260200190815260200160002060000160006101000a81548160ff02191690831515021790555062000197565b600033905090565b60008060009054906101000a900473ffffffffffffffffffffffffffffffffffffffff169050816000806101000a81548173ffffffffffffffffffffffffffffffffffffffff021916908373ffffffffffffffffffffffffffffffffffffffff1602179055508173ffffffffffffffffffffffffffffffffffffffff168173ffffffffffffffffffffffffffffffffffffffff167f8be0079c531659141344cd1fd0a4f28419497f9722a3daafe3b4186f6b6457e060405160405180910390a35050565b60008060009054906101000a900473ffffffffffffffffffffffffffffffffffffffff16905090565b61256d80620001a76000396000f3fe608060405234801561001057600080fd5b50600436106100f55760003560e01c8063a7bfab1611610097578063d4f50f9811610066578063d4f50f98146101ee578063ee74c6781461021e578063f2fde38b14610228578063f4ab9adf14610244576100f5565b8063a7bfab16146101b2578063bdc01431146101bc578063c7038a4e146101da578063c88af42f146101e4576100f5565b806370fdb746116100d357806370fdb7461461013c578063715018a61461016c5780638da5cb5b14610176578063a1edffa214610194576100f5565b806329e5c5fd146100fa5780632fdae3c514610116578063378a217814610132575b600080fd5b610114600480360381019061010f919061151f565b610260565b005b610130600480360381019061012b91906115b1565b610631565b005b61013a6108b4565b005b6101566004803603810190610151919061151f565b6109a3565b60405161016391906116e4565b60405180910390f35b610174610b1c565b005b61017e610b30565b60405161018b9190611747565b60405180910390f35b61019c610b59565b6040516101a991906117d9565b60405180910390f35b6101ba610b6c565b005b6101c4610c52565b6040516101d19190611803565b60405180910390f35b6101e2610c58565b005b6101ec610dd3565b005b6102086004803603810190610203919061184a565b610eb8565b60405161021591906118e3565b60405180910390f35b610226611020565b005b610242600480360381019061023d919061184a565b611106565b005b61025e6004803603810190610259919061184a565b611189565b005b600460003373ffffffffffffffffffffffffffffffffffffffff1673ffffffffffffffffffffffffffffffffffffffff16815260200190815260200160002060000160009054906101000a900460ff166102ef576040517f08c379a00000000000000000000000000000000000000000000000000000000081526004016102e69061195b565b60405180910390fd5b6003600581111561030357610302611762565b5b600260009054906101000a900460ff16600581111561032557610324611762565b5b14610365576040517f08c379a000000000000000000000000000000000000000000000000000000000815260040161035c906119ed565b60405180910390fd5b60011515600460003373ffffffffffffffffffffffffffffffffffffffff1673ffffffffffffffffffffffffffffffffffffffff16815260200190815260200160002060000160019054906101000a900460ff161515036103fb576040517f08c379a00000000000000000000000000000000000000000000000000000000081526004016103f290611a59565b60405180910390fd5b600380549050816fffffffffffffffffffffffffffffffff1610610454576040517f08c379a000000000000000000000000000000000000000000000000000000000815260040161044b90611ac5565b60405180910390fd5b80600460003373ffffffffffffffffffffffffffffffffffffffff1673ffffffffffffffffffffffffffffffffffffffff16815260200190815260200160002060000160026101000a8154816fffffffffffffffffffffffffffffffff02191690836fffffffffffffffffffffffffffffffff1602179055506001600460003373ffffffffffffffffffffffffffffffffffffffff1673ffffffffffffffffffffffffffffffffffffffff16815260200190815260200160002060000160016101000a81548160ff0219169083151502179055506003816fffffffffffffffffffffffffffffffff168154811061054e5761054d611ae5565b5b9060005260206000209060020201600101600081548092919061057090611b43565b919050555060036005548154811061058b5761058a611ae5565b5b9060005260206000209060020201600101546003826fffffffffffffffffffffffffffffffff16815481106105c3576105c2611ae5565b5b90600052602060002090600202016001015411156105f557806fffffffffffffffffffffffffffffffff166005819055505b7f4d99b957a2bc29a30ebd96a7be8e68fe50a3c701db28a91436490b7d53870ca43382604051610626929190611bc6565b60405180910390a150565b600460003373ffffffffffffffffffffffffffffffffffffffff1673ffffffffffffffffffffffffffffffffffffffff16815260200190815260200160002060000160009054906101000a900460ff166106c0576040517f08c379a00000000000000000000000000000000000000000000000000000000081526004016106b79061195b565b60405180910390fd5b600160058111156106d4576106d3611762565b5b600260009054906101000a900460ff1660058111156106f6576106f5611762565b5b14610736576040517f08c379a000000000000000000000000000000000000000000000000000000000815260040161072d90611c3b565b60405180910390fd5b60405160200161074590611c81565b60405160208183030381529060405280519060200120828260405160200161076e929190611cdd565b60405160208183030381529060405280519060200120036107c4576040517f08c379a00000000000000000000000000000000000000000000000000000000081526004016107bb90611d73565b60405180910390fd5b6107cc61147c565b82828080601f016020809104026020016040519081016040528093929190818152602001838380828437600081840152601f19601f8201169050808301925050505050505081600001819052506003819080600181540180825580915050600190039060005260206000209060020201600090919091909150600082015181600001908161085a9190611fc4565b506020820151816001015550507f92e393e9b54e2f801d3ea4beb0c5e71a21cc34a5d34b77d0fb8a3aa1650dc18f600160038054905061089a9190612096565b6040516108a79190611803565b60405180910390a1505050565b6108bc611332565b600460058111156108d0576108cf611762565b5b600260009054906101000a900460ff1660058111156108f2576108f1611762565b5b14610932576040517f08c379a00000000000000000000000000000000000000000000000000000000081526004016109299061213c565b60405180910390fd5b6005546001819055506005600260006101000a81548160ff0219169083600581111561096157610960611762565b5b02179055507f0a97a4ee45751e2abf3e4fc8946939630b11b371ea8ae39ccdc3056e98f5cc3f6004600560405161099992919061215c565b60405180910390a1565b6109ab61147c565b600460003373ffffffffffffffffffffffffffffffffffffffff1673ffffffffffffffffffffffffffffffffffffffff16815260200190815260200160002060000160009054906101000a900460ff16610a3a576040517f08c379a0000000000000000000000000000000000000000000000000000000008152600401610a319061195b565b60405180910390fd5b6003826fffffffffffffffffffffffffffffffff1681548110610a6057610a5f611ae5565b5b9060005260206000209060020201604051806040016040529081600082018054610a8990611df1565b80601f0160208091040260200160405190810160405280929190818152602001828054610ab590611df1565b8015610b025780601f10610ad757610100808354040283529160200191610b02565b820191906000526020600020905b815481529060010190602001808311610ae557829003601f168201915b505050505081526020016001820154815250509050919050565b610b24611332565b610b2e60006113b0565b565b60008060009054906101000a900473ffffffffffffffffffffffffffffffffffffffff16905090565b600260009054906101000a900460ff1681565b610b74611332565b60036005811115610b8857610b87611762565b5b600260009054906101000a900460ff166005811115610baa57610ba9611762565b5b14610bea576040517f08c379a0000000000000000000000000000000000000000000000000000000008152600401610be1906119ed565b60405180910390fd5b6004600260006101000a81548160ff02191690836005811115610c1057610c0f611762565b5b02179055507f0a97a4ee45751e2abf3e4fc8946939630b11b371ea8ae39ccdc3056e98f5cc3f60036004604051610c4892919061215c565b60405180910390a1565b60015481565b610c60611332565b60006005811115610c7457610c73611762565b5b600260009054906101000a900460ff166005811115610c9657610c95611762565b5b14610cd6576040517f08c379a0000000000000000000000000000000000000000000000000000000008152600401610ccd906121f7565b60405180910390fd5b6001600260006101000a81548160ff02191690836005811115610cfc57610cfb611762565b5b0217905550610d0961147c565b6040518060400160405280600781526020017f47454e4553495300000000000000000000000000000000000000000000000000815250816000018190525060038190806001815401808255809150506001900390600052602060002090600202016000909190919091506000820151816000019081610d889190611fc4565b506020820151816001015550507f0a97a4ee45751e2abf3e4fc8946939630b11b371ea8ae39ccdc3056e98f5cc3f60006001604051610dc892919061215c565b60405180910390a150565b610ddb611332565b60016005811115610def57610dee611762565b5b600260009054906101000a900460ff166005811115610e1157610e10611762565b5b14610e51576040517f08c379a0000000000000000000000000000000000000000000000000000000008152600401610e4890612289565b60405180910390fd5b60028060006101000a81548160ff02191690836005811115610e7657610e75611762565b5b02179055507f0a97a4ee45751e2abf3e4fc8946939630b11b371ea8ae39ccdc3056e98f5cc3f60016002604051610eae92919061215c565b60405180910390a1565b610ec0611496565b600460003373ffffffffffffffffffffffffffffffffffffffff1673ffffffffffffffffffffffffffffffffffffffff16815260200190815260200160002060000160009054906101000a900460ff16610f4f576040517f08c379a0000000000000000000000000000000000000000000000000000000008152600401610f469061195b565b60405180910390fd5b600460008373ffffffffffffffffffffffffffffffffffffffff1673ffffffffffffffffffffffffffffffffffffffff1681526020019081526020016000206040518060600160405290816000820160009054906101000a900460ff161515151581526020016000820160019054906101000a900460ff161515151581526020016000820160029054906101000a90046fffffffffffffffffffffffffffffffff166fffffffffffffffffffffffffffffffff166fffffffffffffffffffffffffffffffff16815250509050919050565b611028611332565b6002600581111561103c5761103b611762565b5b600260009054906101000a900460ff16600581111561105e5761105d611762565b5b1461109e576040517f08c379a00000000000000000000000000000000000000000000000000000000081526004016110959061231b565b60405180910390fd5b6003600260006101000a81548160ff021916908360058111156110c4576110c3611762565b5b02179055507f0a97a4ee45751e2abf3e4fc8946939630b11b371ea8ae39ccdc3056e98f5cc3f600260036040516110fc92919061215c565b60405180910390a1565b61110e611332565b600073ffffffffffffffffffffffffffffffffffffffff168173ffffffffffffffffffffffffffffffffffffffff160361117d576040517f08c379a0000000000000000000000000000000000000000000000000000000008152600401611174906123ad565b60405180910390fd5b611186816113b0565b50565b611191611332565b600060058111156111a5576111a4611762565b5b600260009054906101000a900460ff1660058111156111c7576111c6611762565b5b14611207576040517f08c379a00000000000000000000000000000000000000000000000000000000081526004016111fe9061243f565b60405180910390fd5b60011515600460008373ffffffffffffffffffffffffffffffffffffffff1673ffffffffffffffffffffffffffffffffffffffff16815260200190815260200160002060000160009054906101000a900460ff1615150361129d576040517f08c379a0000000000000000000000000000000000000000000000000000000008152600401611294906124ab565b60405180910390fd5b6001600460008373ffffffffffffffffffffffffffffffffffffffff1673ffffffffffffffffffffffffffffffffffffffff16815260200190815260200160002060000160006101000a81548160ff0219169083151502179055507fb6be2187d059cc2a55fe29e0e503b566e1e0f8c8780096e185429350acffd3dd816040516113279190611747565b60405180910390a150565b61133a611474565b73ffffffffffffffffffffffffffffffffffffffff16611358610b30565b73ffffffffffffffffffffffffffffffffffffffff16146113ae576040517f08c379a00000000000000000000000000000000000000000000000000000000081526004016113a590612517565b60405180910390fd5b565b60008060009054906101000a900473ffffffffffffffffffffffffffffffffffffffff169050816000806101000a81548173ffffffffffffffffffffffffffffffffffffffff021916908373ffffffffffffffffffffffffffffffffffffffff1602179055508173ffffffffffffffffffffffffffffffffffffffff168173ffffffffffffffffffffffffffffffffffffffff167f8be0079c531659141344cd1fd0a4f28419497f9722a3daafe3b4186f6b6457e060405160405180910390a35050565b600033905090565b604051806040016040528060608152602001600081525090565b604051806060016040528060001515815260200160001515815260200160006fffffffffffffffffffffffffffffffff1681525090565b600080fd5b600080fd5b60006fffffffffffffffffffffffffffffffff82169050919050565b6114fc816114d7565b811461150757600080fd5b50565b600081359050611519816114f3565b92915050565b600060208284031215611535576115346114cd565b5b60006115438482850161150a565b91505092915050565b600080fd5b600080fd5b600080fd5b60008083601f8401126115715761157061154c565b5b8235905067ffffffffffffffff81111561158e5761158d611551565b5b6020830191508360018202830111156115aa576115a9611556565b5b9250929050565b600080602083850312156115c8576115c76114cd565b5b600083013567ffffffffffffffff8111156115e6576115e56114d2565b5b6115f28582860161155b565b92509250509250929050565b600081519050919050565b600082825260208201905092915050565b60005b8381101561163857808201518184015260208101905061161d565b60008484015250505050565b6000601f19601f8301169050919050565b6000611660826115fe565b61166a8185611609565b935061167a81856020860161161a565b61168381611644565b840191505092915050565b6000819050919050565b6116a18161168e565b82525050565b600060408301600083015184820360008601526116c48282611655565b91505060208301516116d96020860182611698565b508091505092915050565b600060208201905081810360008301526116fe81846116a7565b905092915050565b600073ffffffffffffffffffffffffffffffffffffffff82169050919050565b600061173182611706565b9050919050565b61174181611726565b82525050565b600060208201905061175c6000830184611738565b92915050565b7f4e487b7100000000000000000000000000000000000000000000000000000000600052602160045260246000fd5b600681106117a2576117a1611762565b5b50565b60008190506117b382611791565b919050565b60006117c3826117a5565b9050919050565b6117d3816117b8565b82525050565b60006020820190506117ee60008301846117ca565b92915050565b6117fd8161168e565b82525050565b600060208201905061181860008301846117f4565b92915050565b61182781611726565b811461183257600080fd5b50565b6000813590506118448161181e565b92915050565b6000602082840312156118605761185f6114cd565b5b600061186e84828501611835565b91505092915050565b60008115159050919050565b61188c81611877565b82525050565b61189b816114d7565b82525050565b6060820160008201516118b76000850182611883565b5060208201516118ca6020850182611883565b5060408201516118dd6040850182611892565b50505050565b60006060820190506118f860008301846118a1565b92915050565b600082825260208201905092915050565b7f596f75277265206e6f74206120766f7465720000000000000000000000000000600082015250565b60006119456012836118fe565b91506119508261190f565b602082019050919050565b6000602082019050818103600083015261197481611938565b9050919050565b7f566f74696e672073657373696f6e20686176656e74207374617274656420796560008201527f7400000000000000000000000000000000000000000000000000000000000000602082015250565b60006119d76021836118fe565b91506119e28261197b565b604082019050919050565b60006020820190508181036000830152611a06816119ca565b9050919050565b7f596f75206861766520616c726561647920766f74656400000000000000000000600082015250565b6000611a436016836118fe565b9150611a4e82611a0d565b602082019050919050565b60006020820190508181036000830152611a7281611a36565b9050919050565b7f50726f706f73616c206e6f7420666f756e640000000000000000000000000000600082015250565b6000611aaf6012836118fe565b9150611aba82611a79565b602082019050919050565b60006020820190508181036000830152611ade81611aa2565b9050919050565b7f4e487b7100000000000000000000000000000000000000000000000000000000600052603260045260246000fd5b7f4e487b7100000000000000000000000000000000000000000000000000000000600052601160045260246000fd5b6000611b4e8261168e565b91507fffffffffffffffffffffffffffffffffffffffffffffffffffffffffffffffff8203611b8057611b7f611b14565b5b600182019050919050565b6000819050919050565b6000611bb0611bab611ba6846114d7565b611b8b565b61168e565b9050919050565b611bc081611b95565b82525050565b6000604082019050611bdb6000830185611738565b611be86020830184611bb7565b9392505050565b7f50726f706f73616c7320617265206e6f7420616c6c6f77656420796574000000600082015250565b6000611c25601d836118fe565b9150611c3082611bef565b602082019050919050565b60006020820190508181036000830152611c5481611c18565b9050919050565b50565b6000611c6b6000836118fe565b9150611c7682611c5b565b600082019050919050565b60006020820190508181036000830152611c9a81611c5e565b9050919050565b82818337600083830152505050565b6000611cbc83856118fe565b9350611cc9838584611ca1565b611cd283611644565b840190509392505050565b60006020820190508181036000830152611cf8818486611cb0565b90509392505050565b7f566f7573206e6520706f7576657a20706173206e65207269656e2070726f706f60008201527f7365720000000000000000000000000000000000000000000000000000000000602082015250565b6000611d5d6023836118fe565b9150611d6882611d01565b604082019050919050565b60006020820190508181036000830152611d8c81611d50565b9050919050565b7f4e487b7100000000000000000000000000000000000000000000000000000000600052604160045260246000fd5b7f4e487b7100000000000000000000000000000000000000000000000000000000600052602260045260246000fd5b60006002820490506001821680611e0957607f821691505b602082108103611e1c57611e1b611dc2565b5b50919050565b60008190508160005260206000209050919050565b60006020601f8301049050919050565b600082821b905092915050565b600060088302611e847fffffffffffffffffffffffffffffffffffffffffffffffffffffffffffffffff82611e47565b611e8e8683611e47565b95508019841693508086168417925050509392505050565b6000611ec1611ebc611eb78461168e565b611b8b565b61168e565b9050919050565b6000819050919050565b611edb83611ea6565b611eef611ee782611ec8565b848454611e54565b825550505050565b600090565b611f04611ef7565b611f0f818484611ed2565b505050565b5b81811015611f3357611f28600082611efc565b600181019050611f15565b5050565b601f821115611f7857611f4981611e22565b611f5284611e37565b81016020851015611f61578190505b611f75611f6d85611e37565b830182611f14565b50505b505050565b600082821c905092915050565b6000611f9b60001984600802611f7d565b1980831691505092915050565b6000611fb48383611f8a565b9150826002028217905092915050565b611fcd826115fe565b67ffffffffffffffff811115611fe657611fe5611d93565b5b611ff08254611df1565b611ffb828285611f37565b600060209050601f83116001811461202e576000841561201c578287015190505b6120268582611fa8565b86555061208e565b601f19841661203c86611e22565b60005b828110156120645784890151825560018201915060208501945060208101905061203f565b86831015612081578489015161207d601f891682611f8a565b8355505b6001600288020188555050505b505050505050565b60006120a18261168e565b91506120ac8361168e565b92508282039050818111156120c4576120c3611b14565b5b92915050565b7f43757272656e7420737461747573206973206e6f7420766f74696e672073657360008201527f73696f6e20656e64656400000000000000000000000000000000000000000000602082015250565b6000612126602a836118fe565b9150612131826120ca565b604082019050919050565b6000602082019050818103600083015261215581612119565b9050919050565b600060408201905061217160008301856117ca565b61217e60208301846117ca565b9392505050565b7f5265676973746572696e672070726f706f73616c732063616e7420626520737460008201527f6172746564206e6f770000000000000000000000000000000000000000000000602082015250565b60006121e16029836118fe565b91506121ec82612185565b604082019050919050565b60006020820190508181036000830152612210816121d4565b9050919050565b7f5265676973746572696e672070726f706f73616c7320686176656e742073746160008201527f7274656420796574000000000000000000000000000000000000000000000000602082015250565b60006122736028836118fe565b915061227e82612217565b604082019050919050565b600060208201905081810360008301526122a281612266565b9050919050565b7f5265676973746572696e672070726f706f73616c73207068617365206973206e60008201527f6f742066696e6973686564000000000000000000000000000000000000000000602082015250565b6000612305602b836118fe565b9150612310826122a9565b604082019050919050565b60006020820190508181036000830152612334816122f8565b9050919050565b7f4f776e61626c653a206e6577206f776e657220697320746865207a65726f206160008201527f6464726573730000000000000000000000000000000000000000000000000000602082015250565b60006123976026836118fe565b91506123a28261233b565b604082019050919050565b600060208201905081810360008301526123c68161238a565b9050919050565b7f566f7465727320726567697374726174696f6e206973206e6f74206f70656e2060008201527f7965740000000000000000000000000000000000000000000000000000000000602082015250565b60006124296023836118fe565b9150612434826123cd565b604082019050919050565b600060208201905081810360008301526124588161241c565b9050919050565b7f416c726561647920726567697374657265640000000000000000000000000000600082015250565b60006124956012836118fe565b91506124a08261245f565b602082019050919050565b600060208201905081810360008301526124c481612488565b9050919050565b7f4f776e61626c653a2063616c6c6572206973206e6f7420746865206f776e6572600082015250565b60006125016020836118fe565b915061250c826124cb565b602082019050919050565b60006020820190508181036000830152612530816124f4565b905091905056fea26469706673582212204c300fa51b754fe083c0ae4a36abd0ffdd0d518fce3a3334093296e199cc591764736f6c63430008120033",
  "immutableReferences": {},
  "source": "// SPDX-License-Identifier: MIT\n\npragma solidity 0.8.18;\n\nimport \"../node_modules/@openzeppelin/contracts/access/Ownable.sol\";\n\n/** \n$ @title Voting.sol secure and optimized Smart Contract\n* @author Xavier BARADA / github: https://github.com/XaViPanDx\n* @author Antoine PICOT / github: https://github.com/hehehe84\n* @notice Voting.sol Smart Contract allow registered voters to add as musch proposals \n* they want to finally vote for their favorite.\n* The Owner will specify the different states of voting status.\n*/\ncontract Voting is Ownable {\n\n    /**\n    * @notice WinningProposalId will show the final result in the TallyVote function.\n    * (numbers of proposals would be adapted for a smal community like here)\n    */\n    uint256 public winningProposalID;\n    \n    /**\n    $ @notice A Voter structure is defined for each voter.\n    * It will show if voter is registered or not, if he has voted or not and his proposals by Id.\n    */\n    struct Voter {\n        bool isRegistered;\n        bool hasVoted;\n        uint128 votedProposalId;\n    }\n    \n    /**\n    * @notice A Proposal strucure is defined to register proposal description and\n    * proposal voteCount during the vote session.\n    */\n    struct Proposal {\n        string description;\n        uint voteCount;\n    }\n    \n    /**\n    * @notice The enum WorkflowStatus define the different states of voting process\n    * whitch are controlled by the owner action.\n    */\n    enum  WorkflowStatus {\n        RegisteringVoters,\n        ProposalsRegistrationStarted,\n        ProposalsRegistrationEnded,\n        VotingSessionStarted,\n        VotingSessionEnded,\n        VotesTallied\n    }\n    \n    /**\n    * @notice WorkflowStatus will define the current state of voting process.\n    */\n    WorkflowStatus public workflowStatus;\n    \n    /**\n    * @notice We use here an array for Proposals and a mapping for the Voters.\n    */\n    Proposal[] proposalsArray;\n    mapping (address => Voter) voters;\n\n    /**\n    * @notice These different events will be emitted in their appropriate function.\n    */\n    event VoterRegistered(address voterAddress); \n    event WorkflowStatusChange(WorkflowStatus previousStatus, WorkflowStatus newStatus);\n    event ProposalRegistered(uint proposalId);\n    event Voted (address voter, uint proposalId);\n\n\n    /**\n    * @dev modifier integration to forbid non voters to interact with Smart Contract.\n    */\n    modifier onlyVoters() {\n        require(voters[msg.sender].isRegistered, \"You're not a voter\");\n        _;\n    }\n    \n    /**\n    * @dev constructor integration to allow directly Smart Contract deployer to interact with the Dapp.\n    */\n    constructor() {\n        voters[owner()].isRegistered = true;\n    }\n    \n    /**\n    * @dev getVoter() and getOneProposals() functions allow voters to get informations about voters or\n    * proposals (by voter address and proposal Id).\n    */\n    function getVoter(address _addr) external onlyVoters view returns (Voter memory) {\n        return voters[_addr];\n    }\n    \n    function getOneProposal(uint128 _id) external onlyVoters view returns (Proposal memory) {\n        return proposalsArray[_id];\n    }\n\n    /**\n    * @notice RegisteringVoters is the fisrt stage of the voting process.\n    $ The owner will add the voters address manually in this stage.\n    * A voter address can't be added twice.\n    * @dev addVoter function use the onlyOwner modifier to restrict this action to Owner.\n    */\n    function addVoter(address _addr) external onlyOwner {\n        require(workflowStatus == WorkflowStatus.RegisteringVoters, 'Voters registration is not open yet');\n        require(voters[_addr].isRegistered != true, 'Already registered');\n    \n        voters[_addr].isRegistered = true;\n        emit VoterRegistered(_addr);\n    }\n \n    /**\n    * @notice ProposalsRegistrationStarted is the second stage of the voting process.\n    * Voters will be able to add as musch proposals thez wants.\n    * @dev Voters can't propose empty proposals.\n    */\n    function addProposal(string calldata _desc) external onlyVoters {\n        require(workflowStatus == WorkflowStatus.ProposalsRegistrationStarted, 'Proposals are not allowed yet');\n        require(keccak256(abi.encode(_desc)) != keccak256(abi.encode(\"\")), 'Vous ne pouvez pas ne rien proposer'); // facultatif\n        // voir que desc est different des autres\n\n        Proposal memory proposal;\n        proposal.description = _desc;\n        proposalsArray.push(proposal);\n        emit ProposalRegistered(proposalsArray.length-1);\n    }\n\n    /**\n    * @notice VotingSessionStarted is the third stage of the voting process.\n    * Voters will be able to vote for their favorite proposal.\n    * @dev Voters can't vote twice.\n    * Also we decided to implement a private variable _winingproposalId here to prevent\n    * DoS gas limit attack in the TallyVote() function in case of malicious proposals.\n    */\n\n    uint256 private _winningProposalId;\n\n    function setVote( uint128 _id) external onlyVoters {\n        require(workflowStatus == WorkflowStatus.VotingSessionStarted, 'Voting session havent started yet');\n        require(voters[msg.sender].hasVoted != true, 'You have already voted');\n        require(_id < proposalsArray.length, 'Proposal not found'); // pas oblig, et pas besoin du >0 car uint\n\n        voters[msg.sender].votedProposalId = _id;\n        voters[msg.sender].hasVoted = true;\n        proposalsArray[_id].voteCount++;\n\n        if (proposalsArray[_id].voteCount > proposalsArray[_winningProposalId].voteCount) {\n            _winningProposalId = _id;\n        }\n\n        emit Voted(msg.sender, _id);\n    }\n    \n    /**\n    * @dev States functions witch wll be activated by Owner to orchestrate the vote process.\n    * Without activation, nobody will be able to interact with wrong status's functions and an error \n    * message will be send to the msg.sender.\n    */\n    function startProposalsRegistering() external onlyOwner {\n        require(workflowStatus == WorkflowStatus.RegisteringVoters, 'Registering proposals cant be started now');\n        workflowStatus = WorkflowStatus.ProposalsRegistrationStarted;\n        \n        Proposal memory proposal;\n        proposal.description = \"GENESIS\";\n        proposalsArray.push(proposal);\n        \n        emit WorkflowStatusChange(WorkflowStatus.RegisteringVoters, WorkflowStatus.ProposalsRegistrationStarted);\n    }\n\n    function endProposalsRegistering() external onlyOwner {\n        require(workflowStatus == WorkflowStatus.ProposalsRegistrationStarted, 'Registering proposals havent started yet');\n        workflowStatus = WorkflowStatus.ProposalsRegistrationEnded;\n        emit WorkflowStatusChange(WorkflowStatus.ProposalsRegistrationStarted, WorkflowStatus.ProposalsRegistrationEnded);\n    }\n\n    function startVotingSession() external onlyOwner {\n        require(workflowStatus == WorkflowStatus.ProposalsRegistrationEnded, 'Registering proposals phase is not finished');\n        workflowStatus = WorkflowStatus.VotingSessionStarted;\n        emit WorkflowStatusChange(WorkflowStatus.ProposalsRegistrationEnded, WorkflowStatus.VotingSessionStarted);\n    }\n\n    function endVotingSession() external onlyOwner {\n        require(workflowStatus == WorkflowStatus.VotingSessionStarted, 'Voting session havent started yet');\n        workflowStatus = WorkflowStatus.VotingSessionEnded;\n        emit WorkflowStatusChange(WorkflowStatus.VotingSessionStarted, WorkflowStatus.VotingSessionEnded);\n    }\n\n    /**\n    * @notice VotingSessionEnded is the fourth stage of the voting process.\n    * OnlyOwner will be able to reveal the winning proposal Id.\n    * @dev The winning proposal Id will be directly caught in the setVote function to prevent DoS gas limit attack.\n    */\n    function tallyVotes() external onlyOwner {\n       require(workflowStatus == WorkflowStatus.VotingSessionEnded, \"Current status is not voting session ended\");\n        winningProposalID = _winningProposalId;\n       \n       workflowStatus = WorkflowStatus.VotesTallied;\n       emit WorkflowStatusChange(WorkflowStatus.VotingSessionEnded, WorkflowStatus.VotesTallied);\n    }\n}",
  "sourcePath": "/home/antoineo84/dev/SatoshiKingz/Projet3/DappVoting/truffle/contracts/Voting.sol",
  "compiler": {
    "name": "solc",
    "version": "0.8.18+commit.87f61d96.Emscripten.clang"
  },
  "schemaVersion": "3.4.11",
  "updatedAt": "2023-03-20T09:24:14.085Z",
  "networkType": "ethereum",
  "devdoc": {
    "author": "Xavier BARADA / github: https://github.com/XaViPanDxAntoine PICOT / github: https://github.com/hehehe84",
    "kind": "dev",
    "methods": {
      "addProposal(string)": {
        "details": "Voters can't propose empty proposals."
      },
      "addVoter(address)": {
        "details": "addVoter function use the onlyOwner modifier to restrict this action to Owner."
      },
      "constructor": {
        "details": "constructor integration to allow directly Smart Contract deployer to interact with the Dapp."
      },
      "getVoter(address)": {
        "details": "getVoter() and getOneProposals() functions allow voters to get informations about voters or proposals (by voter address and proposal Id)."
      },
      "owner()": {
        "details": "Returns the address of the current owner."
      },
      "renounceOwnership()": {
        "details": "Leaves the contract without owner. It will not be possible to call `onlyOwner` functions anymore. Can only be called by the current owner. NOTE: Renouncing ownership will leave the contract without an owner, thereby removing any functionality that is only available to the owner."
      },
      "startProposalsRegistering()": {
        "details": "States functions witch wll be activated by Owner to orchestrate the vote process. Without activation, nobody will be able to interact with wrong status's functions and an error  message will be send to the msg.sender."
      },
      "tallyVotes()": {
        "details": "The winning proposal Id will be directly caught in the setVote function to prevent DoS gas limit attack."
      },
      "transferOwnership(address)": {
        "details": "Transfers ownership of the contract to a new account (`newOwner`). Can only be called by the current owner."
      }
    },
    "stateVariables": {
      "_winningProposalId": {
        "details": "Voters can't vote twice. Also we decided to implement a private variable _winingproposalId here to prevent DoS gas limit attack in the TallyVote() function in case of malicious proposals."
      }
    },
    "title": "Voting.sol secure and optimized Smart Contract",
    "version": 1
  },
  "userdoc": {
    "events": {
      "VoterRegistered(address)": {
        "notice": "These different events will be emitted in their appropriate function."
      }
    },
    "kind": "user",
    "methods": {
      "addProposal(string)": {
        "notice": "ProposalsRegistrationStarted is the second stage of the voting process. Voters will be able to add as musch proposals thez wants."
      },
      "addVoter(address)": {
        "notice": "RegisteringVoters is the fisrt stage of the voting process. $ The owner will add the voters address manually in this stage. A voter address can't be added twice."
      },
      "tallyVotes()": {
        "notice": "VotingSessionEnded is the fourth stage of the voting process. OnlyOwner will be able to reveal the winning proposal Id."
      },
      "winningProposalID()": {
        "notice": "WinningProposalId will show the final result in the TallyVote function. (numbers of proposals would be adapted for a smal community like here)"
      },
      "workflowStatus()": {
        "notice": "WorkflowStatus will define the current state of voting process."
      }
    },
    "notice": "Voting.sol Smart Contract allow registered voters to add as musch proposals  they want to finally vote for their favorite. The Owner will specify the different states of voting status.",
    "version": 1
  }
}