{
  "contractName": "Voting",
  "abi": [
    {
      "inputs": [],
      "stateMutability": "nonpayable",
      "type": "constructor"
    },
    {
      "anonymous": false,
      "inputs": [
        {
          "indexed": true,
          "internalType": "address",
          "name": "previousOwner",
          "type": "address"
        },
        {
          "indexed": true,
          "internalType": "address",
          "name": "newOwner",
          "type": "address"
        }
      ],
      "name": "OwnershipTransferred",
      "type": "event"
    },
    {
      "anonymous": false,
      "inputs": [
        {
          "indexed": false,
          "internalType": "uint256",
          "name": "proposalId",
          "type": "uint256"
        }
      ],
      "name": "ProposalRegistered",
      "type": "event"
    },
    {
      "anonymous": false,
      "inputs": [
        {
          "indexed": false,
          "internalType": "address",
          "name": "voter",
          "type": "address"
        },
        {
          "indexed": false,
          "internalType": "uint256",
          "name": "proposalId",
          "type": "uint256"
        }
      ],
      "name": "Voted",
      "type": "event"
    },
    {
      "anonymous": false,
      "inputs": [
        {
          "indexed": false,
          "internalType": "address",
          "name": "voterAddress",
          "type": "address"
        }
      ],
      "name": "VoterRegistered",
      "type": "event"
    },
    {
      "anonymous": false,
      "inputs": [
        {
          "indexed": false,
          "internalType": "enum Voting.WorkflowStatus",
          "name": "previousStatus",
          "type": "uint8"
        },
        {
          "indexed": false,
          "internalType": "enum Voting.WorkflowStatus",
          "name": "newStatus",
          "type": "uint8"
        }
      ],
      "name": "WorkflowStatusChange",
      "type": "event"
    },
    {
      "inputs": [],
      "name": "owner",
      "outputs": [
        {
          "internalType": "address",
          "name": "",
          "type": "address"
        }
      ],
      "stateMutability": "view",
      "type": "function",
      "constant": true
    },
    {
      "inputs": [],
      "name": "renounceOwnership",
      "outputs": [],
      "stateMutability": "nonpayable",
      "type": "function"
    },
    {
      "inputs": [
        {
          "internalType": "address",
          "name": "newOwner",
          "type": "address"
        }
      ],
      "name": "transferOwnership",
      "outputs": [],
      "stateMutability": "nonpayable",
      "type": "function"
    },
    {
      "inputs": [],
      "name": "winningPropId",
      "outputs": [
        {
          "internalType": "uint128",
          "name": "",
          "type": "uint128"
        }
      ],
      "stateMutability": "view",
      "type": "function",
      "constant": true
    },
    {
      "inputs": [],
      "name": "winningProposalID",
      "outputs": [
        {
          "internalType": "uint128",
          "name": "",
          "type": "uint128"
        }
      ],
      "stateMutability": "view",
      "type": "function",
      "constant": true
    },
    {
      "inputs": [],
      "name": "workflowStatus",
      "outputs": [
        {
          "internalType": "enum Voting.WorkflowStatus",
          "name": "",
          "type": "uint8"
        }
      ],
      "stateMutability": "view",
      "type": "function",
      "constant": true
    },
    {
      "inputs": [
        {
          "internalType": "address",
          "name": "_addr",
          "type": "address"
        }
      ],
      "name": "getVoter",
      "outputs": [
        {
          "components": [
            {
              "internalType": "bool",
              "name": "isRegistered",
              "type": "bool"
            },
            {
              "internalType": "bool",
              "name": "hasVoted",
              "type": "bool"
            },
            {
              "internalType": "uint128",
              "name": "votedProposalId",
              "type": "uint128"
            }
          ],
          "internalType": "struct Voting.Voter",
          "name": "",
          "type": "tuple"
        }
      ],
      "stateMutability": "view",
      "type": "function",
      "constant": true
    },
    {
      "inputs": [
        {
          "internalType": "uint128",
          "name": "_id",
          "type": "uint128"
        }
      ],
      "name": "getOneProposal",
      "outputs": [
        {
          "components": [
            {
              "internalType": "string",
              "name": "description",
              "type": "string"
            },
            {
              "internalType": "uint256",
              "name": "voteCount",
              "type": "uint256"
            }
          ],
          "internalType": "struct Voting.Proposal",
          "name": "",
          "type": "tuple"
        }
      ],
      "stateMutability": "view",
      "type": "function",
      "constant": true
    },
    {
      "inputs": [
        {
          "internalType": "address",
          "name": "_addr",
          "type": "address"
        }
      ],
      "name": "addVoter",
      "outputs": [],
      "stateMutability": "nonpayable",
      "type": "function"
    },
    {
      "inputs": [
        {
          "internalType": "string",
          "name": "_desc",
          "type": "string"
        }
      ],
      "name": "addProposal",
      "outputs": [],
      "stateMutability": "nonpayable",
      "type": "function"
    },
    {
      "inputs": [
        {
          "internalType": "uint128",
          "name": "_id",
          "type": "uint128"
        }
      ],
      "name": "setVote",
      "outputs": [],
      "stateMutability": "nonpayable",
      "type": "function"
    },
    {
      "inputs": [],
      "name": "startProposalsRegistering",
      "outputs": [],
      "stateMutability": "nonpayable",
      "type": "function"
    },
    {
      "inputs": [],
      "name": "endProposalsRegistering",
      "outputs": [],
      "stateMutability": "nonpayable",
      "type": "function"
    },
    {
      "inputs": [],
      "name": "startVotingSession",
      "outputs": [],
      "stateMutability": "nonpayable",
      "type": "function"
    },
    {
      "inputs": [],
      "name": "endVotingSession",
      "outputs": [],
      "stateMutability": "nonpayable",
      "type": "function"
    },
    {
      "inputs": [],
      "name": "tallyVotes",
      "outputs": [],
      "stateMutability": "nonpayable",
      "type": "function"
    }
  ],
  "bytecode": "0x60806040523480156200001157600080fd5b506200003262000026620000a260201b60201c565b620000aa60201b60201c565b600160046000620000486200016e60201b60201c565b73ffffffffffffffffffffffffffffffffffffffff1673ffffffffffffffffffffffffffffffffffffffff16815260200190815260200160002060000160006101000a81548160ff02191690831515021790555062000197565b600033905090565b60008060009054906101000a900473ffffffffffffffffffffffffffffffffffffffff169050816000806101000a81548173ffffffffffffffffffffffffffffffffffffffff021916908373ffffffffffffffffffffffffffffffffffffffff1602179055508173ffffffffffffffffffffffffffffffffffffffff168173ffffffffffffffffffffffffffffffffffffffff167f8be0079c531659141344cd1fd0a4f28419497f9722a3daafe3b4186f6b6457e060405160405180910390a35050565b60008060009054906101000a900473ffffffffffffffffffffffffffffffffffffffff16905090565b6126f380620001a76000396000f3fe608060405234801561001057600080fd5b50600436106101005760003560e01c8063a7bfab1611610097578063d4f50f9811610066578063d4f50f9814610217578063ee74c67814610247578063f2fde38b14610251578063f4ab9adf1461026d57610100565b8063a7bfab16146101db578063bdc01431146101e5578063c7038a4e14610203578063c88af42f1461020d57610100565b8063715018a6116100d3578063715018a6146101775780638da5cb5b1461018157806397ed0a811461019f578063a1edffa2146101bd57610100565b806329e5c5fd146101055780632fdae3c514610121578063378a21781461013d57806370fdb74614610147575b600080fd5b61011f600480360381019061011a9190611643565b610289565b005b61013b600480360381019061013691906116d5565b6106c9565b005b61014561094c565b005b610161600480360381019061015c9190611643565b610a89565b60405161016e9190611808565b60405180910390f35b61017f610c02565b005b610189610c16565b604051610196919061186b565b60405180910390f35b6101a7610c3f565b6040516101b49190611895565b60405180910390f35b6101c5610c61565b6040516101d29190611927565b60405180910390f35b6101e3610c74565b005b6101ed610d5a565b6040516101fa9190611895565b60405180910390f35b61020b610d7c565b005b610215610ef7565b005b610231600480360381019061022c919061196e565b610fdc565b60405161023e9190611a07565b60405180910390f35b61024f611144565b005b61026b6004803603810190610266919061196e565b61122a565b005b6102876004803603810190610282919061196e565b6112ad565b005b600460003373ffffffffffffffffffffffffffffffffffffffff1673ffffffffffffffffffffffffffffffffffffffff16815260200190815260200160002060000160009054906101000a900460ff16610318576040517f08c379a000000000000000000000000000000000000000000000000000000000815260040161030f90611a7f565b60405180910390fd5b6003600581111561032c5761032b6118b0565b5b600260009054906101000a900460ff16600581111561034e5761034d6118b0565b5b1461038e576040517f08c379a000000000000000000000000000000000000000000000000000000000815260040161038590611b11565b60405180910390fd5b60011515600460003373ffffffffffffffffffffffffffffffffffffffff1673ffffffffffffffffffffffffffffffffffffffff16815260200190815260200160002060000160019054906101000a900460ff16151503610424576040517f08c379a000000000000000000000000000000000000000000000000000000000815260040161041b90611b7d565b60405180910390fd5b600380549050816fffffffffffffffffffffffffffffffff161061047d576040517f08c379a000000000000000000000000000000000000000000000000000000000815260040161047490611be9565b60405180910390fd5b600080600090505b600380549050816fffffffffffffffffffffffffffffffff161015610531576003826fffffffffffffffffffffffffffffffff16815481106104ca576104c9611c09565b5b9060005260206000209060020201600101546003826fffffffffffffffffffffffffffffffff168154811061050257610501611c09565b5b906000526020600020906002020160010154111561051e578091505b808061052990611c67565b915050610485565b5080600160106101000a8154816fffffffffffffffffffffffffffffffff02191690836fffffffffffffffffffffffffffffffff16021790555081600460003373ffffffffffffffffffffffffffffffffffffffff1673ffffffffffffffffffffffffffffffffffffffff16815260200190815260200160002060000160026101000a8154816fffffffffffffffffffffffffffffffff02191690836fffffffffffffffffffffffffffffffff1602179055506001600460003373ffffffffffffffffffffffffffffffffffffffff1673ffffffffffffffffffffffffffffffffffffffff16815260200190815260200160002060000160016101000a81548160ff0219169083151502179055506003826fffffffffffffffffffffffffffffffff168154811061066557610664611c09565b5b9060005260206000209060020201600101600081548092919061068790611c9f565b91905055507f4d99b957a2bc29a30ebd96a7be8e68fe50a3c701db28a91436490b7d53870ca433836040516106bd929190611d22565b60405180910390a15050565b600460003373ffffffffffffffffffffffffffffffffffffffff1673ffffffffffffffffffffffffffffffffffffffff16815260200190815260200160002060000160009054906101000a900460ff16610758576040517f08c379a000000000000000000000000000000000000000000000000000000000815260040161074f90611a7f565b60405180910390fd5b6001600581111561076c5761076b6118b0565b5b600260009054906101000a900460ff16600581111561078e5761078d6118b0565b5b146107ce576040517f08c379a00000000000000000000000000000000000000000000000000000000081526004016107c590611d97565b60405180910390fd5b6040516020016107dd90611ddd565b604051602081830303815290604052805190602001208282604051602001610806929190611e39565b604051602081830303815290604052805190602001200361085c576040517f08c379a000000000000000000000000000000000000000000000000000000000815260040161085390611ecf565b60405180910390fd5b6108646115a0565b82828080601f016020809104026020016040519081016040528093929190818152602001838380828437600081840152601f19601f820116905080830192505050505050508160000181905250600381908060018154018082558091505060019003906000526020600020906002020160009091909190915060008201518160000190816108f29190612120565b506020820151816001015550507f92e393e9b54e2f801d3ea4beb0c5e71a21cc34a5d34b77d0fb8a3aa1650dc18f600160038054905061093291906121f2565b60405161093f9190612235565b60405180910390a1505050565b610954611456565b60046005811115610968576109676118b0565b5b600260009054906101000a900460ff16600581111561098a576109896118b0565b5b146109ca576040517f08c379a00000000000000000000000000000000000000000000000000000000081526004016109c1906122c2565b60405180910390fd5b600160109054906101000a90046fffffffffffffffffffffffffffffffff16600160006101000a8154816fffffffffffffffffffffffffffffffff02191690836fffffffffffffffffffffffffffffffff1602179055506005600260006101000a81548160ff02191690836005811115610a4757610a466118b0565b5b02179055507f0a97a4ee45751e2abf3e4fc8946939630b11b371ea8ae39ccdc3056e98f5cc3f60046005604051610a7f9291906122e2565b60405180910390a1565b610a916115a0565b600460003373ffffffffffffffffffffffffffffffffffffffff1673ffffffffffffffffffffffffffffffffffffffff16815260200190815260200160002060000160009054906101000a900460ff16610b20576040517f08c379a0000000000000000000000000000000000000000000000000000000008152600401610b1790611a7f565b60405180910390fd5b6003826fffffffffffffffffffffffffffffffff1681548110610b4657610b45611c09565b5b9060005260206000209060020201604051806040016040529081600082018054610b6f90611f4d565b80601f0160208091040260200160405190810160405280929190818152602001828054610b9b90611f4d565b8015610be85780601f10610bbd57610100808354040283529160200191610be8565b820191906000526020600020905b815481529060010190602001808311610bcb57829003601f168201915b505050505081526020016001820154815250509050919050565b610c0a611456565b610c1460006114d4565b565b60008060009054906101000a900473ffffffffffffffffffffffffffffffffffffffff16905090565b600160109054906101000a90046fffffffffffffffffffffffffffffffff1681565b600260009054906101000a900460ff1681565b610c7c611456565b60036005811115610c9057610c8f6118b0565b5b600260009054906101000a900460ff166005811115610cb257610cb16118b0565b5b14610cf2576040517f08c379a0000000000000000000000000000000000000000000000000000000008152600401610ce990611b11565b60405180910390fd5b6004600260006101000a81548160ff02191690836005811115610d1857610d176118b0565b5b02179055507f0a97a4ee45751e2abf3e4fc8946939630b11b371ea8ae39ccdc3056e98f5cc3f60036004604051610d509291906122e2565b60405180910390a1565b600160009054906101000a90046fffffffffffffffffffffffffffffffff1681565b610d84611456565b60006005811115610d9857610d976118b0565b5b600260009054906101000a900460ff166005811115610dba57610db96118b0565b5b14610dfa576040517f08c379a0000000000000000000000000000000000000000000000000000000008152600401610df19061237d565b60405180910390fd5b6001600260006101000a81548160ff02191690836005811115610e2057610e1f6118b0565b5b0217905550610e2d6115a0565b6040518060400160405280600781526020017f47454e4553495300000000000000000000000000000000000000000000000000815250816000018190525060038190806001815401808255809150506001900390600052602060002090600202016000909190919091506000820151816000019081610eac9190612120565b506020820151816001015550507f0a97a4ee45751e2abf3e4fc8946939630b11b371ea8ae39ccdc3056e98f5cc3f60006001604051610eec9291906122e2565b60405180910390a150565b610eff611456565b60016005811115610f1357610f126118b0565b5b600260009054906101000a900460ff166005811115610f3557610f346118b0565b5b14610f75576040517f08c379a0000000000000000000000000000000000000000000000000000000008152600401610f6c9061240f565b60405180910390fd5b60028060006101000a81548160ff02191690836005811115610f9a57610f996118b0565b5b02179055507f0a97a4ee45751e2abf3e4fc8946939630b11b371ea8ae39ccdc3056e98f5cc3f60016002604051610fd29291906122e2565b60405180910390a1565b610fe46115ba565b600460003373ffffffffffffffffffffffffffffffffffffffff1673ffffffffffffffffffffffffffffffffffffffff16815260200190815260200160002060000160009054906101000a900460ff16611073576040517f08c379a000000000000000000000000000000000000000000000000000000000815260040161106a90611a7f565b60405180910390fd5b600460008373ffffffffffffffffffffffffffffffffffffffff1673ffffffffffffffffffffffffffffffffffffffff1681526020019081526020016000206040518060600160405290816000820160009054906101000a900460ff161515151581526020016000820160019054906101000a900460ff161515151581526020016000820160029054906101000a90046fffffffffffffffffffffffffffffffff166fffffffffffffffffffffffffffffffff166fffffffffffffffffffffffffffffffff16815250509050919050565b61114c611456565b600260058111156111605761115f6118b0565b5b600260009054906101000a900460ff166005811115611182576111816118b0565b5b146111c2576040517f08c379a00000000000000000000000000000000000000000000000000000000081526004016111b9906124a1565b60405180910390fd5b6003600260006101000a81548160ff021916908360058111156111e8576111e76118b0565b5b02179055507f0a97a4ee45751e2abf3e4fc8946939630b11b371ea8ae39ccdc3056e98f5cc3f600260036040516112209291906122e2565b60405180910390a1565b611232611456565b600073ffffffffffffffffffffffffffffffffffffffff168173ffffffffffffffffffffffffffffffffffffffff16036112a1576040517f08c379a000000000000000000000000000000000000000000000000000000000815260040161129890612533565b60405180910390fd5b6112aa816114d4565b50565b6112b5611456565b600060058111156112c9576112c86118b0565b5b600260009054906101000a900460ff1660058111156112eb576112ea6118b0565b5b1461132b576040517f08c379a0000000000000000000000000000000000000000000000000000000008152600401611322906125c5565b60405180910390fd5b60011515600460008373ffffffffffffffffffffffffffffffffffffffff1673ffffffffffffffffffffffffffffffffffffffff16815260200190815260200160002060000160009054906101000a900460ff161515036113c1576040517f08c379a00000000000000000000000000000000000000000000000000000000081526004016113b890612631565b60405180910390fd5b6001600460008373ffffffffffffffffffffffffffffffffffffffff1673ffffffffffffffffffffffffffffffffffffffff16815260200190815260200160002060000160006101000a81548160ff0219169083151502179055507fb6be2187d059cc2a55fe29e0e503b566e1e0f8c8780096e185429350acffd3dd8160405161144b919061186b565b60405180910390a150565b61145e611598565b73ffffffffffffffffffffffffffffffffffffffff1661147c610c16565b73ffffffffffffffffffffffffffffffffffffffff16146114d2576040517f08c379a00000000000000000000000000000000000000000000000000000000081526004016114c99061269d565b60405180910390fd5b565b60008060009054906101000a900473ffffffffffffffffffffffffffffffffffffffff169050816000806101000a81548173ffffffffffffffffffffffffffffffffffffffff021916908373ffffffffffffffffffffffffffffffffffffffff1602179055508173ffffffffffffffffffffffffffffffffffffffff168173ffffffffffffffffffffffffffffffffffffffff167f8be0079c531659141344cd1fd0a4f28419497f9722a3daafe3b4186f6b6457e060405160405180910390a35050565b600033905090565b604051806040016040528060608152602001600081525090565b604051806060016040528060001515815260200160001515815260200160006fffffffffffffffffffffffffffffffff1681525090565b600080fd5b600080fd5b60006fffffffffffffffffffffffffffffffff82169050919050565b611620816115fb565b811461162b57600080fd5b50565b60008135905061163d81611617565b92915050565b600060208284031215611659576116586115f1565b5b60006116678482850161162e565b91505092915050565b600080fd5b600080fd5b600080fd5b60008083601f84011261169557611694611670565b5b8235905067ffffffffffffffff8111156116b2576116b1611675565b5b6020830191508360018202830111156116ce576116cd61167a565b5b9250929050565b600080602083850312156116ec576116eb6115f1565b5b600083013567ffffffffffffffff81111561170a576117096115f6565b5b6117168582860161167f565b92509250509250929050565b600081519050919050565b600082825260208201905092915050565b60005b8381101561175c578082015181840152602081019050611741565b60008484015250505050565b6000601f19601f8301169050919050565b600061178482611722565b61178e818561172d565b935061179e81856020860161173e565b6117a781611768565b840191505092915050565b6000819050919050565b6117c5816117b2565b82525050565b600060408301600083015184820360008601526117e88282611779565b91505060208301516117fd60208601826117bc565b508091505092915050565b6000602082019050818103600083015261182281846117cb565b905092915050565b600073ffffffffffffffffffffffffffffffffffffffff82169050919050565b60006118558261182a565b9050919050565b6118658161184a565b82525050565b6000602082019050611880600083018461185c565b92915050565b61188f816115fb565b82525050565b60006020820190506118aa6000830184611886565b92915050565b7f4e487b7100000000000000000000000000000000000000000000000000000000600052602160045260246000fd5b600681106118f0576118ef6118b0565b5b50565b6000819050611901826118df565b919050565b6000611911826118f3565b9050919050565b61192181611906565b82525050565b600060208201905061193c6000830184611918565b92915050565b61194b8161184a565b811461195657600080fd5b50565b60008135905061196881611942565b92915050565b600060208284031215611984576119836115f1565b5b600061199284828501611959565b91505092915050565b60008115159050919050565b6119b08161199b565b82525050565b6119bf816115fb565b82525050565b6060820160008201516119db60008501826119a7565b5060208201516119ee60208501826119a7565b506040820151611a0160408501826119b6565b50505050565b6000606082019050611a1c60008301846119c5565b92915050565b600082825260208201905092915050565b7f596f75277265206e6f74206120766f7465720000000000000000000000000000600082015250565b6000611a69601283611a22565b9150611a7482611a33565b602082019050919050565b60006020820190508181036000830152611a9881611a5c565b9050919050565b7f566f74696e672073657373696f6e20686176656e74207374617274656420796560008201527f7400000000000000000000000000000000000000000000000000000000000000602082015250565b6000611afb602183611a22565b9150611b0682611a9f565b604082019050919050565b60006020820190508181036000830152611b2a81611aee565b9050919050565b7f596f75206861766520616c726561647920766f74656400000000000000000000600082015250565b6000611b67601683611a22565b9150611b7282611b31565b602082019050919050565b60006020820190508181036000830152611b9681611b5a565b9050919050565b7f50726f706f73616c206e6f7420666f756e640000000000000000000000000000600082015250565b6000611bd3601283611a22565b9150611bde82611b9d565b602082019050919050565b60006020820190508181036000830152611c0281611bc6565b9050919050565b7f4e487b7100000000000000000000000000000000000000000000000000000000600052603260045260246000fd5b7f4e487b7100000000000000000000000000000000000000000000000000000000600052601160045260246000fd5b6000611c72826115fb565b91506fffffffffffffffffffffffffffffffff8203611c9457611c93611c38565b5b600182019050919050565b6000611caa826117b2565b91507fffffffffffffffffffffffffffffffffffffffffffffffffffffffffffffffff8203611cdc57611cdb611c38565b5b600182019050919050565b6000819050919050565b6000611d0c611d07611d02846115fb565b611ce7565b6117b2565b9050919050565b611d1c81611cf1565b82525050565b6000604082019050611d37600083018561185c565b611d446020830184611d13565b9392505050565b7f50726f706f73616c7320617265206e6f7420616c6c6f77656420796574000000600082015250565b6000611d81601d83611a22565b9150611d8c82611d4b565b602082019050919050565b60006020820190508181036000830152611db081611d74565b9050919050565b50565b6000611dc7600083611a22565b9150611dd282611db7565b600082019050919050565b60006020820190508181036000830152611df681611dba565b9050919050565b82818337600083830152505050565b6000611e188385611a22565b9350611e25838584611dfd565b611e2e83611768565b840190509392505050565b60006020820190508181036000830152611e54818486611e0c565b90509392505050565b7f566f7573206e6520706f7576657a20706173206e65207269656e2070726f706f60008201527f7365720000000000000000000000000000000000000000000000000000000000602082015250565b6000611eb9602383611a22565b9150611ec482611e5d565b604082019050919050565b60006020820190508181036000830152611ee881611eac565b9050919050565b7f4e487b7100000000000000000000000000000000000000000000000000000000600052604160045260246000fd5b7f4e487b7100000000000000000000000000000000000000000000000000000000600052602260045260246000fd5b60006002820490506001821680611f6557607f821691505b602082108103611f7857611f77611f1e565b5b50919050565b60008190508160005260206000209050919050565b60006020601f8301049050919050565b600082821b905092915050565b600060088302611fe07fffffffffffffffffffffffffffffffffffffffffffffffffffffffffffffffff82611fa3565b611fea8683611fa3565b95508019841693508086168417925050509392505050565b600061201d612018612013846117b2565b611ce7565b6117b2565b9050919050565b6000819050919050565b61203783612002565b61204b61204382612024565b848454611fb0565b825550505050565b600090565b612060612053565b61206b81848461202e565b505050565b5b8181101561208f57612084600082612058565b600181019050612071565b5050565b601f8211156120d4576120a581611f7e565b6120ae84611f93565b810160208510156120bd578190505b6120d16120c985611f93565b830182612070565b50505b505050565b600082821c905092915050565b60006120f7600019846008026120d9565b1980831691505092915050565b600061211083836120e6565b9150826002028217905092915050565b61212982611722565b67ffffffffffffffff81111561214257612141611eef565b5b61214c8254611f4d565b612157828285612093565b600060209050601f83116001811461218a5760008415612178578287015190505b6121828582612104565b8655506121ea565b601f19841661219886611f7e565b60005b828110156121c05784890151825560018201915060208501945060208101905061219b565b868310156121dd57848901516121d9601f8916826120e6565b8355505b6001600288020188555050505b505050505050565b60006121fd826117b2565b9150612208836117b2565b92508282039050818111156122205761221f611c38565b5b92915050565b61222f816117b2565b82525050565b600060208201905061224a6000830184612226565b92915050565b7f43757272656e7420737461747573206973206e6f7420766f74696e672073657360008201527f73696f6e20656e64656400000000000000000000000000000000000000000000602082015250565b60006122ac602a83611a22565b91506122b782612250565b604082019050919050565b600060208201905081810360008301526122db8161229f565b9050919050565b60006040820190506122f76000830185611918565b6123046020830184611918565b9392505050565b7f5265676973746572696e672070726f706f73616c732063616e7420626520737460008201527f6172746564206e6f770000000000000000000000000000000000000000000000602082015250565b6000612367602983611a22565b91506123728261230b565b604082019050919050565b600060208201905081810360008301526123968161235a565b9050919050565b7f5265676973746572696e672070726f706f73616c7320686176656e742073746160008201527f7274656420796574000000000000000000000000000000000000000000000000602082015250565b60006123f9602883611a22565b91506124048261239d565b604082019050919050565b60006020820190508181036000830152612428816123ec565b9050919050565b7f5265676973746572696e672070726f706f73616c73207068617365206973206e60008201527f6f742066696e6973686564000000000000000000000000000000000000000000602082015250565b600061248b602b83611a22565b91506124968261242f565b604082019050919050565b600060208201905081810360008301526124ba8161247e565b9050919050565b7f4f776e61626c653a206e6577206f776e657220697320746865207a65726f206160008201527f6464726573730000000000000000000000000000000000000000000000000000602082015250565b600061251d602683611a22565b9150612528826124c1565b604082019050919050565b6000602082019050818103600083015261254c81612510565b9050919050565b7f566f7465727320726567697374726174696f6e206973206e6f74206f70656e2060008201527f7965740000000000000000000000000000000000000000000000000000000000602082015250565b60006125af602383611a22565b91506125ba82612553565b604082019050919050565b600060208201905081810360008301526125de816125a2565b9050919050565b7f416c726561647920726567697374657265640000000000000000000000000000600082015250565b600061261b601283611a22565b9150612626826125e5565b602082019050919050565b6000602082019050818103600083015261264a8161260e565b9050919050565b7f4f776e61626c653a2063616c6c6572206973206e6f7420746865206f776e6572600082015250565b6000612687602083611a22565b915061269282612651565b602082019050919050565b600060208201905081810360008301526126b68161267a565b905091905056fea26469706673582212205a352b00dc3aff311886985ac1014146afb5d58e30c8b1d2f8fb83fd8e7e201a64736f6c63430008120033",
  "immutableReferences": {},
  "source": "// SPDX-License-Identifier: MIT\n\npragma solidity 0.8.18;\n\nimport \"../node_modules/@openzeppelin/contracts/access/Ownable.sol\";\n\n/** \n* @author Xavier BARADA / github: https://github.com/XaViPanDx\n* @author Antoine PICOT / github: https://github.com/hehehe84\n**/\n/**\n* @notice Voting.sol Smart Contract allow registered voters to add as musch proposals \n* they want to finally vote for their favorite.\n* The Owner will specify the different states of voting status.\n**/\ncontract Voting is Ownable {\n\n    uint128 public winningProposalID;\n    uint128 public winningPropId;\n    \n    struct Voter {\n        bool isRegistered;\n        bool hasVoted;\n        uint128 votedProposalId;\n    }\n\n    struct Proposal {\n        string description;\n        uint voteCount;\n    }\n\n    enum  WorkflowStatus {\n        RegisteringVoters,\n        ProposalsRegistrationStarted,\n        ProposalsRegistrationEnded,\n        VotingSessionStarted,\n        VotingSessionEnded,\n        VotesTallied\n    }\n\n    WorkflowStatus public workflowStatus;\n    Proposal[] proposalsArray;\n    mapping (address => Voter) voters;\n\n\n    event VoterRegistered(address voterAddress); \n    event WorkflowStatusChange(WorkflowStatus previousStatus, WorkflowStatus newStatus);\n    event ProposalRegistered(uint proposalId);\n    event Voted (address voter, uint proposalId);\n\n\n    /**\n    * @dev modifier integration to forbid non voters to interact with Smart Contract.\n    **/\n    modifier onlyVoters() {\n        require(voters[msg.sender].isRegistered, \"You're not a voter\");\n        _;\n    }\n    \n    /**\n    * @dev constructor integration to allow directly Smart Contract deployer to interact with the Dapp.\n    **/\n    constructor() {\n        voters[owner()].isRegistered = true;\n    }\n    \n    /**\n    * @dev getVoter() and getOneProposals() functions allow voters to get informations about voters or\n    * proposals (by voter address and proposal Id).\n    **/\n    function getVoter(address _addr) external onlyVoters view returns (Voter memory) {\n        return voters[_addr];\n    }\n    \n    function getOneProposal(uint128 _id) external onlyVoters view returns (Proposal memory) {\n        return proposalsArray[_id];\n    }\n\n    /**\n    * @notice RegisteringVoters is the fisrt stage of the voting process.\n    $ The owner will add the voters address manually in this stage.\n    * A voter address can't be added twice.\n    **/\n    /**\n    * @dev addVoter function use the onlyOwner modifier to restrict this action to Owner.\n    **/\n    function addVoter(address _addr) external onlyOwner {\n        require(workflowStatus == WorkflowStatus.RegisteringVoters, 'Voters registration is not open yet');\n        require(voters[_addr].isRegistered != true, 'Already registered');\n    \n        voters[_addr].isRegistered = true;\n        emit VoterRegistered(_addr);\n    }\n \n    /**\n    * @notice ProposalsRegistrationStarted is the second stage of the voting process.\n    * Voters will be able to add as musch proposals thez wants.\n    **/\n    /**\n    * @dev Voters can't propose empty proposals.\n    **/\n    function addProposal(string calldata _desc) external onlyVoters {\n        require(workflowStatus == WorkflowStatus.ProposalsRegistrationStarted, 'Proposals are not allowed yet');\n        require(keccak256(abi.encode(_desc)) != keccak256(abi.encode(\"\")), 'Vous ne pouvez pas ne rien proposer'); // facultatif\n        // voir que desc est different des autres\n\n        Proposal memory proposal;\n        proposal.description = _desc;\n        proposalsArray.push(proposal);\n        emit ProposalRegistered(proposalsArray.length-1);\n    }\n\n    /**\n    * @notice VotingSessionStarted is the third stage of the voting process.\n    * Voters will be able to vote for their favorite proposal.\n    **/\n    /**\n    * @dev Voters can't vote twice.\n    * Also we decided to implement a temporary memory winingproposalId here to prevent\n    * DoS gas limit attack in the TallyVote() function in case of malicious proposals.\n    **/\n\n    function setVote( uint128 _id) external onlyVoters {\n        require(workflowStatus == WorkflowStatus.VotingSessionStarted, 'Voting session havent started yet');\n        require(voters[msg.sender].hasVoted != true, 'You have already voted');\n        require(_id < proposalsArray.length, 'Proposal not found'); // pas oblig, et pas besoin du >0 car uint\n\n        uint128 _winningProposalId;\n        \n        for (uint128 p = 0; p < proposalsArray.length; p++) {\n           if (proposalsArray[p].voteCount > proposalsArray[_winningProposalId].voteCount) {\n               _winningProposalId = p;\n          }\n       }\n       winningPropId = _winningProposalId;\n\n        voters[msg.sender].votedProposalId = _id;\n        voters[msg.sender].hasVoted = true;\n        proposalsArray[_id].voteCount++;\n\n        emit Voted(msg.sender, _id);\n    }\n    \n    /**\n    * @dev States functions witch wll be activated by Owner to orchestrate the vote process.\n    * Without activation, nobody will be able to interact with wrong status's functions ans an error \n    * message will be send.\n    **/\n    function startProposalsRegistering() external onlyOwner {\n        require(workflowStatus == WorkflowStatus.RegisteringVoters, 'Registering proposals cant be started now');\n        workflowStatus = WorkflowStatus.ProposalsRegistrationStarted;\n        \n        Proposal memory proposal;\n        proposal.description = \"GENESIS\";\n        proposalsArray.push(proposal);\n        \n        emit WorkflowStatusChange(WorkflowStatus.RegisteringVoters, WorkflowStatus.ProposalsRegistrationStarted);\n    }\n\n    function endProposalsRegistering() external onlyOwner {\n        require(workflowStatus == WorkflowStatus.ProposalsRegistrationStarted, 'Registering proposals havent started yet');\n        workflowStatus = WorkflowStatus.ProposalsRegistrationEnded;\n        emit WorkflowStatusChange(WorkflowStatus.ProposalsRegistrationStarted, WorkflowStatus.ProposalsRegistrationEnded);\n    }\n\n    function startVotingSession() external onlyOwner {\n        require(workflowStatus == WorkflowStatus.ProposalsRegistrationEnded, 'Registering proposals phase is not finished');\n        workflowStatus = WorkflowStatus.VotingSessionStarted;\n        emit WorkflowStatusChange(WorkflowStatus.ProposalsRegistrationEnded, WorkflowStatus.VotingSessionStarted);\n    }\n\n    function endVotingSession() external onlyOwner {\n        require(workflowStatus == WorkflowStatus.VotingSessionStarted, 'Voting session havent started yet');\n        workflowStatus = WorkflowStatus.VotingSessionEnded;\n        emit WorkflowStatusChange(WorkflowStatus.VotingSessionStarted, WorkflowStatus.VotingSessionEnded);\n    }\n\n    /**\n    * @notice VotingSessionEnded is the fourth stage of the voting process.\n    * OnlyOwner will be able to reveal the winning proposal Id.\n    **/\n    /**\n    * @dev The winning proposal Id will be directly caught in the setVote function to prevent DoS gas limit attack.\n    **/\n    function tallyVotes() external onlyOwner {\n       require(workflowStatus == WorkflowStatus.VotingSessionEnded, \"Current status is not voting session ended\");\n        winningProposalID = winningPropId;\n       \n       workflowStatus = WorkflowStatus.VotesTallied;\n       emit WorkflowStatusChange(WorkflowStatus.VotingSessionEnded, WorkflowStatus.VotesTallied);\n    }\n}",
  "sourcePath": "/home/antoineo84/dev/SatoshiKingz/Projet3/DappVoting/truffle/contracts/Voting.sol",
  "compiler": {
    "name": "solc",
    "version": "0.8.18+commit.87f61d96.Emscripten.clang"
  },
  "schemaVersion": "3.4.11",
  "updatedAt": "2023-03-14T09:38:58.646Z",
  "networkType": "ethereum",
  "devdoc": {
    "kind": "dev",
    "methods": {
      "addProposal(string)": {
        "details": "Voters can't propose empty proposals.*"
      },
      "addVoter(address)": {
        "details": "addVoter function use the onlyOwner modifier to restrict this action to Owner.*"
      },
      "constructor": {
        "details": "constructor integration to allow directly Smart Contract deployer to interact with the Dapp.*"
      },
      "getVoter(address)": {
        "details": "getVoter() and getOneProposals() functions allow voters to get informations about voters or proposals (by voter address and proposal Id).*"
      },
      "owner()": {
        "details": "Returns the address of the current owner."
      },
      "renounceOwnership()": {
        "details": "Leaves the contract without owner. It will not be possible to call `onlyOwner` functions anymore. Can only be called by the current owner. NOTE: Renouncing ownership will leave the contract without an owner, thereby removing any functionality that is only available to the owner."
      },
      "setVote(uint128)": {
        "details": "Voters can't vote twice. Also we decided to implement a temporary memory winingproposalId here to prevent DoS gas limit attack in the TallyVote() function in case of malicious proposals.*"
      },
      "startProposalsRegistering()": {
        "details": "States functions witch wll be activated by Owner to orchestrate the vote process. Without activation, nobody will be able to interact with wrong status's functions ans an error  message will be send.*"
      },
      "tallyVotes()": {
        "details": "The winning proposal Id will be directly caught in the setVote function to prevent DoS gas limit attack.*"
      },
      "transferOwnership(address)": {
        "details": "Transfers ownership of the contract to a new account (`newOwner`). Can only be called by the current owner."
      }
    },
    "version": 1
  },
  "userdoc": {
    "kind": "user",
    "methods": {},
    "notice": "Voting.sol Smart Contract allow registered voters to add as musch proposals  they want to finally vote for their favorite. The Owner will specify the different states of voting status.*",
    "version": 1
  }
}